:020000040800F2
:10000000D04E002055DC000859DC000841090008EA
:100010005DDC00085FDC000861DC00080000000017
:1000200000000000000000000000000001010008C6
:1000300065DC00080000000045010008F3830008AB
:100040006BDC00086BDC00086BDC000869CB000887
:100050006BDC00086BDC00086BDC00086BDC000864
:100060006BDC00086BDC00086BDC00086BDC000854
:100070006BDC00086BDC00086BDC00086BDC000844
:100080006BDC00086BDC00086BDC00086BDC000834
:100090006BDC00086BDC00086BDC00083710000824
:1000A0006BDC00086BDC00086BDC00086BDC000814
:1000B0005110000877AA00086BDC00086BDC000810
:1000C0006BDC00086BDC00086BDC00086BDC0008F4
:1000D0006BDC000863CA00086BDC00084DD6000822
:1000E0006BDC0008FDCB00086BDC0008DFF80CD0EF
:1000F0000FF058FB00480047ED0C0008D04E0020E0
:10010000204B19680868B0E8F00F80F30988BFF346
:100110006F8F4FF0000080F311884EF00D0E704786
:100120000000000006480068006880F3088862B696
:1001300061B6BFF34F8FBFF36F8F00DF00BF00BF0B
:1001400008ED00E0EFF30980BFF36F8F0D4B1A68E5
:1001500020E9F00F106008B54FF0BF0080F3118860
:1001600007F07EFC4FF0000080F31188BDE80840E6
:1001700019680868B0E8F00F80F30988BFF36F8F43
:10018000704700BF98010020EFF311804FF0BF01CE
:1001900081F31188704780F311887047EFF3058071
:1001A0007047000010B50446FE4800780D2803D1C2
:1001B000FD4809F0ADF802E0FC4809F0A9F801207B
:1001C00010BD01460C20F74A107001207047F54819
:1001D0000078052801D1012070470020FCE710B508
:1001E000F04800780C280DD109F0A0F950B109F0C1
:1001F0004EFD38B108F080FA20B1ED48007808B91A
:10020000012010BD0020FCE7E6480078012801DD50
:10021000012070470020FCE770B504460D4608F049
:1002200053FF05F085FDE348006880470C20DD4959
:100230000870002070BDDB48007870472DE9F04160
:1002400007460C4615461E46DDF81880384608F06D
:10025000D3FF2946204605F06FFDD7480660D548F4
:10026000C0F800800020CF490870BDE8F0811FB5BC
:10027000D248007820B10020D0490870C9490870E0
:10028000CF4800780A2805DB0020CD490870CD480A
:1002900009F0DDFBC3480078102872D2DFE800F0D7
:1002A000083241484F5691F8F0EFAED9EEEDECEB45
:1002B0004FF0FF300123642211460090C24800F045
:1002C00061FF0020C1490870C149087009F03EF97A
:1002D00009F0C8FE08F0F8FE05F02AFDB5480068F0
:1002E0008047B84809F0B3FB002008F0FBF9B94893
:1002F00000680BF0ABF80620B74908700120A94947
:100300000870F6E1B54809F0E1FE48B109F08DFB4F
:1003100018B10220A3490870EBE10C20A149087034
:10032000E7E109F087FB10B10C209E490870E0E17D
:1003300009F028FC10B10C209A490870D9E108F0A6
:1003400061FA10B10C2097490870D2E100209F4952
:1003500008709F48007818B9A1480078012805D096
:100360000020A049087007208E49087006F0CFFCD5
:1003700005F0F5FC30B108F0A7FE072089490870A8
:100380001EE0B2E106F00CFDC0B18B480068A8B1D8
:100390008848006890B109F0D5F805F024FA86483D
:1003A0000068804760B105F0C3FC82480068804760
:1003B00008F08AFE07207B49087001E005F00AFA80
:1003C00097E108F098FE08F08BFEB0B108F080FECF
:1003D00080B109F0AEF800207D49087005F0BBFC43
:1003E0007448006810B173480068804705206D4963
:1003F000087002E00C206B4908707AE108F068FE92
:10040000C8B106F0CDFCB0B177A0032140F6B832F8
:10041000774B1B68CDE90032CDE9021075A34FF48C
:100420007A7276A1AFF20F2008F0FFFF80B90B209F
:100430005C4908700CE008F047FE06205949087036
:1004400000206349087005F073FC5A480068804733
:100450004FE1614800780BF071FCC0B15E48007854
:1004600006280FD100205F490870594908700520FF
:100470004C4908700BE024E113E1F7E066E034E05A
:100480000FE005E008F020FE07204649087030E143
:1004900000205449087009F055F8082041490870B7
:1004A00027E15048007860B14B480078062808D111
:1004B00000204C490870464908700C2039490870E2
:1004C00012E051A000214FF4FA624CA3CDE90032B2
:1004D000CDE902104D4892100368084608F0A5FFC8
:1004E00010B909202F49087000BF3B4800780BF075
:1004F00025FC30B338480078062806D1002034495E
:1005000008700C20274908701FE041A201204FF419
:100510007A71374B1B68CDE90031CDE902023B48C7
:100520004A1000210368084608F07FFF2D48017833
:100530000078401C2B4A1070032903DA082019495F
:10054000087002E0002017490870D2E008F0EEFFC2
:10055000032807D108F0DEF808F0F8FF042011495D
:1005600008707CE008F0C8F818B904200D4908703C
:1005700075E00F48007838B90BF083FD254909680C
:10058000401A254988424CD90BF07BFD214908606F
:1005900009F04BFA20B100200549087002203DE027
:1005A0005DE00000090000202C100108F40F010894
:1005B00049020020100000200C000020140200203E
:1005C0005C0200200F1000086C080020360200209A
:1005D00035020020300200203C020020C80501083E
:1005E000000000200A00002041544F0D00000000D0
:1005F00024020020434F4E4E454354004E4F2043AB
:1006000041525249455200002B2B2B002002002062
:1006100041540D0004000020E09304009749087045
:100620001DE009F034FB18B903209449087016E066
:1006300008F07CFF00B15CE091480078012802D10D
:10064000904908700BE08E480078022807D18E4848
:1006500008F055FE18B10D208849087049E0894816
:10066000007810B10A208549087042E008F0C7FD03
:10067000B0B1864800780BF061FB88B18348007800
:1006800006280AD105F054FB81480068804708F02D
:100690001BFD0E207949087002E0002077490870A0
:1006A00027E07748007802280AD00C2073490870A8
:1006B00007F0D1FF744808F02BFE0F206F49087037
:1006C00017E008F09CFD78B1704800780BF036FB1D
:1006D00050B16E480078062803D10C206749087095
:1006E00002E000206549087003E0002063490870BB
:1006F00000BF00BF09F0CBFA80B107F0FDFF68B181
:1007000008F014FF50B96348007838B90BF0B9FC11
:1007100061490968401A6149884201D908F05EFDC3
:1007200056480078052809D001205D4908705D4BC6
:100730005D485E49026855480BF038FB4F48007829
:10074000012801DD08F03BFF59480BF0B8FC50B917
:100750004FF47A7156480BF0A7FC08F0D9FE09F067
:1007600087F908F020F81FBD70B504460D46002C2F
:100770001BD150A151480BF078F851A152480BF011
:1007800074F852A153480BF070F853A154480BF081
:100790006CF854A154480BF068F854A155480BF07C
:1007A00064F855A156480BF060F8294643480BF011
:1007B00068F808B12D2C01DB002070BD29464248A5
:1007C0000BF05FF838B9012005F0C2FA03204D495B
:1007D00008700020F1E729463E480BF052F850B966
:1007E000012005F0B5FA484848490860022045490B
:1007F00008700020E1E7294639480BF042F850B96B
:10080000012005F0A5FA42484049086001203D4911
:1008100008700020D1E7294633480BF032F850B970
:10082000012005F095FA3B48384908600420354915
:1008300008700020C1E729462E480BF022F850B975
:10084000012005F085FA34483049086005202D491B
:1008500008700020B1E7294629480BF012F850B97A
:10086000002005F075FA2D48284908600620254922
:1008700008700020A1E7FF209FE70000090000208A
:100880000000002036020020481001083C02002031
:10089000100000204902002004000020E093040022
:1008A000A4020020203F002030020020043F00204E
:1008B0007C0500200D0A4F4B00000000C4050020FD
:1008C000424753322D5700008805002042475332DB
:1008D0002D450000940500204247322D45000000C0
:1008E000A00500204D393500AC05002053494D3995
:1008F00030300000D00500204731303000000000CB
:10090000B805002008000020D2070108A00200203E
:100910009D090108580B0108CD0C0108120E0108B1
:1009200010B5002807DA0A07140EFE4A00F00F037C
:100930001B1FD45403E00A07130EFB4A135410BDC7
:1009400000BFFEE710B50446F848C06940F001005A
:10095000F649C861F648B4FBF0F0401E89040885EA
:1009600040F2E73088850020088088800120888157
:100970000C211C20FFF7D4FF1C2000F089FB4FF056
:100980008040008840F001004FF08041088010BD99
:1009900010B594B062B60DF0DDF83D20E3498861F2
:1009A0004FF00070E34948600846806820F00F006F
:1009B00088600846C06820F0F001DE48C160006928
:1009C00020F47061DB480161406920F47041D9482E
:1009D00041618015D8490860D6480069D549086149
:1009E000D5481438006820F48070D3491439086061
:1009F000081D006820F48070091D0860081F006849
:100A000040F48070091F0860081D006840F4807081
:100A1000091D0860081D006820F48070091D086029
:100A2000081D006840F48070091D08600B21172024
:100A3000FFF776FF172000F02BFBC048006820F07E
:100A40000F00BE4908600846006840F001000860D9
:100A500007F0E6FD0CF031F900F09DFBB8480068A6
:100A6000FFF770FF00F078FC4FF4E131B448006804
:100A70000BF0E4FE0020B24900900968480800230A
:100A80001A464FF4E1310CF0EFFC0DF08DFC012221
:100A9000ACA102A80DF0AEFCA0B102A80DF0D1FDF2
:100AA0000822A8A102A80DF0A5FC58B9A848006822
:100AB0000EF04CF8044613AB2246A548016802A884
:100AC0000DF0ECFE02A80DF0BCFD0122A1A102A8D0
:100AD0000DF090FCA0B102A80DF0B3FD08229DA17D
:100AE00002A80DF087FC58B99E4800680EF02EF859
:100AF000044613AB22469B48016802A80DF0CEFEC7
:100B000002A80DF09EFD012297A102A80DF072FC33
:100B1000A0B102A80DF095FD082293A102A80DF046
:100B200069FC58B9944800680EF010F8044613ABFD
:100B300022469148016802A80DF0B0FE02A80DF00F
:100B400080FD14B010BD1FB58CA00FF01BF874E031
:100B500000220121022002F03FFB0646B6F1FF3FD2
:100B600006D1304602F065F98BA00FF00BF864E077
:100B70008EA00FF007F800200090019002900390E3
:100B800002208DF801008DA003F081F801904FF450
:100B9000EB6002F007FFADF8020010226946304614
:100BA00002F077F950B1304602F043F987A00EF019
:100BB000E9FF40F6B83006F0A7FE3EE088A00EF050
:100BC000E1FF80200FF042F880468AA28EA14046C5
:100BD0000EF0E8FF40460DF0B9FF471C3A4641468B
:100BE000304602F02FFB002802DA88A00EF0CAFF80
:100BF0008AA00EF0C7FF40460EF0FAFF80200FF0EB
:100C000025F8054606E0002028552A46214688A0FA
:100C10000EF0B8FF80222946304602F02AFA041E60
:100C2000F1DC28460EF0E4FF002C05DC304602F033
:100C300000F988A00EF0A6FF00BF89E788B0002465
:100C4000642105A80BF030FA8848894B89A289A154
:100C5000009089A0FFF7F2FA47E0FFF708FB894808
:100C6000407A052812D18848007878B187A18A484F
:100C700008F01EF938B18948824908610421814889
:100C800007F044FD02E07F4807F05FFD7D48407AB1
:100C900001281ED1824981480BF00EF8C8B980485E
:100CA000017880A00EF06EFF7D480078312810D1C9
:100CB000744807F04AFD01203C2106220023CDE9BB
:100CC0000032CDE902100346744A70A1784807F05B
:100CD00049FD05A80BF0F3F938B9642105A80BF01C
:100CE000E3F96434204600F0A0FAB6E71FB5FFF739
:100CF0004FFE00F099FC01F0B3FB00F02BFE01F079
:100D0000E3FC0021084600F033FA00200123CDE97E
:100D10000030029003464FF4807266A10390AFF258
:100D2000E300CFE018ED00E000E400E00010024036
:100D300040420F000000014014040140000801403F
:100D40004C05002063612D636572742E70656D0023
:100D5000140000207365727665722D636572742EBF
:100D600070656D00180000207365727665722D6BDA
:100D700065792E70656D00001C00002048656C6C64
:100D80006F2C2077656C636F6D6520746F20636CCA
:100D900069656E74210D0A0043203E20736F636BFA
:100DA0006574206661696C210A00000043203E20C2
:100DB000736F636B6574206F6B210A003131382EBD
:100DC00036392E36302E31373400000043203E2095
:100DD000636F6E6E656374206661696C210A000042
:100DE00043203E20636F6E6E656374206F6B210A33
:100DF00000000000636C69656E745F73656E64204B
:100E0000696E666F0000000025730A0043203E20D3
:100E100073656E64206661696C0A000043203E20A1
:100E200073656E6420737563636573730A000000F5
:100E300043203E2072656164206461746120737593
:100E40006363657373202564210A43203E20257364
:100E50000A00000043203E207265616420646174D2
:100E600061206661696C210A00000000ED10000835
:100E7000391100086D6D7300696E7465726E65746A
:100E800000000000A03D0020050200203039373866
:100E90003737393232320000643E00201C06002011
:100EA000290000200D0A44544D463A2563000000F5
:100EB000F005002047534D5F475052535F54415354
:100EC0004B00000006F0F2FA00200123CDE90030CB
:100ED000029075A3802277A10390AFF2953006F0BF
:100EE000E5FA06F00DFF00BFFEE708B505462E4601
:100EF0004FF4EB6776208DF8000045208DF8010057
:100F00003C208DF80200AE208DF80300002000F098
:100F1000A7FE81463A466946484600F06CFF3046D7
:100F20000DF014FE1FFA80F8012342463146484670
:100F300001F071F80EE0484600F0E3FF04464CB1C2
:100F40002068428901234168484601F064F8204640
:100F500000F087FDEFE71FB50646374600200090FA
:100F600001900290039002208DF80100AFF2B410BE
:100F700002F08DFE01904FF4EB6002F013FDADF82E
:100F8000020026E000220121022002F025F9054698
:100F9000B5F1FF3F07D1284601F04BFFAFF2082023
:100FA0000EF0F0FD15E047A00EF0ECFD10226946B2
:100FB000284601F06EFF58B1284601F03AFFAFF223
:100FC000F4100EF0DFFD4FF47A7006F09DFC00E0A7
:100FD00000E0D7E700BF38460DF0B8FD804600239B
:100FE00042463946284602F063F80EE000234FF4EB
:100FF00080723A49284602F04AF804462CB1002390
:1010000022463649284602F053F8EFE770473EB5CE
:10101000044620460DF09AFDC5B203201E2102228F
:101020002B46CDE9002102902246AFF2A0112C48B8
:1010300008F03FFE3EBD10B52A48006810F4807FDE
:1010400005D008F08CFA4FF480702649086010BD76
:1010500010B54FF08040008A10F0010F17D04FF606
:10106000FE704FF0804108821F480068401C1E49F6
:101070000860084600683221B0FBF1F201FB120063
:1010800018B91948006800F0D0F809F067FD10BDE4
:1010900000F01F020121914042094FF0E02303EBD1
:1010A0008202C2F8001170470D0A546F6E792D3E0E
:1010B00000000000616D706D206E657420746573B2
:1010C000743100000D0A20436F6E6E6563742074E6
:1010D0006F207365727665720D0A00006C07002040
:1010E000DC0500201404014024000020002070478B
:1010F00038B50446012269462148006800F004FA28
:101100000098C0B10098007820B1012807D00228CB
:101110000BD105E00099886801F056F906E005E07A
:10112000009AD2E90210884700E000BF00BF052006
:10113000009900F068FC38BD10B50020FFF7D8FF1B
:10114000002010BD70B50546052000F03DFC0446AA
:1011500024B92946042000F056FC70BD0020207000
:10116000A56021460648006800F0C4F900BFF4E716
:1011700070B504460D4600F0A9F90149086070BD3C
:101180002C00002030B5039C016042600025856082
:101190004373046130BD08B54448006820F07060B6
:1011A000424908600846006840F0807008600846C0
:1011B000006820F0704008600846006840F08050E9
:1011C00008604FF0FF3001234FF4FA72114600908F
:1011D0003748FFF7D7FF012003464FF4FA72114654
:1011E00000903448FFF7CEFF08BD427B012A1BD197
:1011F00082688A4203D98268521A826001E0002222
:101200008260826852B9026942B10269521E02616B
:10121000D0E900321A44826001220273D0E901321F
:101220009A4201D800220273704710B50446224842
:101230000068201A214AD2E90032C01842F10001A8
:101240001E4A03C21D4802681D480068111A18484A
:10125000FFF7CBFF1948026819480068111A1548B2
:10126000FFF7C3FF1548D0E90010154AC2E9001086
:10127000114804600E48007B012804D140200B492E
:101280001431086003E04020084910310860094823
:10129000007B012804D1802004491431086003E058
:1012A000802002491031086010BD0000000C014090
:1012B0006C08002080080020400000203000002042
:1012C0003800002030B50346674AD28C002A36D059
:1012D000664A002414605460002019E0002113E0E5
:1012E0004218614C34F91240421C5F4D35F912200E
:1012F000A2F2D152A21A5D4C54F8214022445B4C18
:1013000044F821204A1CD1B20129E9DB821CD0B269
:101310001428E3DB0022544CE28400200AE0534A04
:1013200052F820200A2492FBF4F2504C44F820207A
:10133000421CD0B20128F2DB01224D4C227030BD9C
:1013400010B5002101200BF004FA4A480BF03CFDD7
:1013500000204549C88410BD00B591B04020ADF8CB
:10136000000000208DF80300694643480AF048FF5A
:10137000FFF7E6FF012108460BF0EBF901214FF4DE
:1013800001700BF0F3F93D480BF046FF39484C3043
:101390000190354802900020039014200490002012
:1013A0000590802006904000079080000890202043
:1013B000099000020A9000200B9001A92F480BF021
:1013C000CDFF00200C9001208DF834008DF8350001
:1013D0004FF460200E9000200F9002208DF8400006
:1013E0000CA924480BF017FD0523012206212148F2
:1013F0000BF0A9FD0523022211211E480BF0A3FDCD
:1014000001211E480BF0D5FF01211A480BF03AFDCF
:10141000012118480BF02BFD01200BF0B9FE1548F7
:101420000BF047FD00BF13480BF048FD0028FAD130
:1014300010480BF04DFD00BF0E480BF04EFD00288C
:10144000FAD101210B480BF052FD00BF02200BF036
:10145000CBFF0028FAD002200BF0D9FF002004496E
:10146000087011B000BD0000940800205400002056
:101470004D00002000240140000801400800024007
:1014800070B504460D46E0B20CF0A4F8204670BDDD
:101490000FB438B505A800900B48009A04990EF0D7
:1014A00095FB054600200090FF2D00D3FF2500246A
:1014B00004E00549085D0CF08DF8641CAC42F8D3DB
:1014C000002038BC5DF814FBBC08002010B50022D9
:1014D0000421062005F0E9FC0446204610BD10B5A5
:1014E0000446204605F046FF00B100BF204605F047
:1014F00059FF10BD13B50446002342F2107201A932
:10150000204605F07AFD1CBD2DE9F84381460E46C4
:10151000174606F01BFC804606B96E46AFB10023A5
:101520003A463146484605F05FFE012809D106F0EB
:101530000DFC0446A4EB080505B901252846BDE8C5
:10154000F88300203060401EF9E700BF002342F21C
:1015500010723146484605F047FE0128F6D106F0E4
:10156000F5FB0446A4EB080505B901252846E6E786
:1015700070B5054606F023FF03220021012005F087
:1015800094FC04462CB100231A461946204605F067
:1015900034FD2DB9002301221946204605F024FE12
:1015A00006F01AFF0CB9002070BD2046FCE72DE9BB
:1015B000F04180460E4606F0C9FB07469EB1002367
:1015C00032461946404605F00FFE012808D106F0C4
:1015D000BDFB0446E51B05B901252846BDE8F081A1
:1015E0004FF0FF30FAE700BF002342F210721946B5
:1015F000404605F0F9FD0128F6D106F0A7FB0446A8
:10160000E51B05B901252846E8E710B50446002387
:101610001A461946204605F0F0FC10BD10B50446E8
:10162000204605F0BFFE10BD002005E00021324A33
:1016300002EBC0025160401C0428F7DB00212F4A56
:101640001180704770B506F07FFC0646002408E064
:10165000294800EBC4056868B04201D1284670BD36
:10166000641C264800888442F2DB0020F7E7F0B5CE
:1016700085B007460E4614462148006898B90020F8
:1016800004AACDE9012033464FF480721DA10094D5
:101690000390384605F00AFF054619480068401CCB
:1016A000174908600CE0002004AACDE90120334668
:1016B000FA2216A100940390384605F0F7FE05467D
:1016C0000E4801880088401C0C4B049A18800A4878
:1016D00000EBC1004260012D02D1049805B0F0BDBD
:1016E0000020FBE710B506F06AFE012010BD10B522
:1016F000044606F071FE10BDBC0900205C0000200D
:10170000640000206C7749500000000057454253A8
:10171000767200002DE9F04781468A4600BFFFF748
:1017200091FF04460CB1206828B900225146484672
:10173000FFF7EAFE29E02068406838B1206851468A
:1017400042684846FFF7E0FE064601E04FF0FF36EC
:10175000701C0DD1256828682060AF68D5F80C8012
:101760002946062000F04FF90FB14046B847D6E7AA
:1017700020684068B04205D320684068801B21681B
:10178000486002E0002021684860BDE8F0872DE94C
:10179000F047814600BFFFF755FF04460CB12068B3
:1017A00020B900214846FFF702FF28E02068406882
:1017B00030B1206841684846FFF7F9FE064601E06F
:1017C0004FF0FF36701C0DD1256828682060AF6887
:1017D000D5F80C802946062000F015F90FB14046D7
:1017E000B847D8E720684068B04205D32068406811
:1017F000801B2168486002E0002021684860BDE845
:10180000F0872DE9F047074688469146062000F00C
:10181000DBF804460CB9BDE8F08700202060C4F86E
:101820000880C4F80C906760FFF70CFF064630682C
:1018300008B93460EFE730684068B84208D93068CA
:101840004068C01B316848603068206034601CE02C
:10185000356817E060686968401A6060286820B1E0
:1018600028684068616888420BD9286828B12868D0
:1018700040686168401A29684860286820602C60C8
:1018800002E02D68002DE5D100BF00BFC3E72DE9C0
:10189000F04107468846FFF7D5FE0646306808B98E
:1018A000BDE8F081346800251AE0A068B84215D17F
:1018B000E068404512D115B92068306001E0206829
:1018C0002860206828B12068406861680844216861
:1018D00048602146062000F096F8E1E72546246896
:1018E000002CE2D100BFDBE770B50446254601209D
:1018F000286069680868FFF788FE70BD13B582B07C
:101900000C4602A801900020009024B16A461049BC
:101910002046FFF776FF0298FFF739FF009810B1D5
:10192000002004B010BD69460948FFF7B0FF012050
:10193000F7E770B504460020FFF71AFE054621467A
:101940002846FFF7DBFF2846FFF768FE70BD000062
:10195000E91800082DE9F041364E00242BE0364806
:1019600030F81400C01D20F003001FFA80F833483F
:1019700030F81400002818DD314840F8246035465E
:10198000002709E005EB0800C01C20F003002860D8
:101990002E462D68781C87B2284830F81400B842CB
:1019A000F0DC002030602E4603E00020244941F89E
:1019B0002400601C84B2072CD1DB0120FFF7D8FD86
:1019C00020490860BDE8F08170B505461D480068F3
:1019D000FFF7DDFE1A4850F8254074B11849206819
:1019E00041F825000020206016480068FFF70DFE32
:1019F000E01D20F00306304670BD12480068FFF776
:101A000004FE0020F8E770B504460D4605B970BD28
:101A10002E1F0C480068FFF7BAFE094850F8240052
:101A20003060074840F8246006480068FFF7EDFD85
:101A300000BFECE7F80900206410010872100108EB
:101A4000DC0900206800002010B50220FFF7BCFF71
:101A5000044624B1002020606060204610BD0020B4
:101A6000FCE710B504465CB1206828B1206800F09E
:101A70006AFE00206060206021460220FFF7C3FF5D
:101A800010BD70B504460D46206810B1206800F006
:101A90005AFE00222946104600F093FE206020687E
:101AA00008B9002070BD2068606020684068F9E7D0
:101AB00010B50446206810B1206800F044FE0020F4
:101AC0006060206010BD70B504460D461646206863
:101AD00010B1206800F037FE02220021084600F015
:101AE00070FE20602068456020680681206846817D
:101AF0002068606070BD70B504460D462968206896
:101B000000F092FF2068606029460220FFF77BFF0B
:101B100070BD01460868008970470346586810B9CF
:101B20006FF0010070475868406808605868408945
:101B300010800020F6E701464868006810B94FF0B1
:101B4000FF3070474868006848604868006808B916
:101B50000120F6E70020F4E7016841607047F0B526
:101B60000446002604B101B9F0BD206819E033B184
:101B700047899F4203DC4789DF1BBBB210E01D464B
:101B80000AE047687F5D8F55771CBFB23E4697429B
:101B900000DBE9E76F1CBDB24789AF42F1DC0023EF
:101BA0000068964201DA0028E1D100BFDCE770B599
:101BB00004460D4616460023324629462046FFF7C6
:101BC000CEFF70BD0146886870470146888970471E
:101BD0002DE9F04106460F4690460320FFF7F4FE3C
:101BE000044614B90020BDE8F08100202072267060
:101BF0006060FFF76BFCE06028B921460320FFF727
:101C000002FF0020EFE7002020616061A0616070AA
:101C1000E061C4F8248020840420FFF7D5FE05008D
:101C200005D121460320FFF7EEFE0020DBE7002070
:101C30002870AF816C60284600F0CFFB0021E0687F
:101C4000FFF768FD29460420FFF7DDFE207A28B162
:101C500021460320FFF7D7FE0020C4E72046C2E755
:101C600010B50446002211462046FFF7B1FF10BD13
:101C700070B505460C46224600212846FFF7A8FF0E
:101C800070BD38B504460CB9002038BD0420FFF7FC
:101C90009BFE050001D1401EF7E7012028706C6013
:101CA000284600F09AFB0021E068FFF733FD294643
:101CB0000420FFF7A8FE206960B100BF0122694639
:101CC0002069FFF721FC401CF8D12069FFF707FCD1
:101CD00000202061606978B102E00098FFF7D1FF31
:101CE000012269466069FFF70FFC401CF5D160696D
:101CF000FFF7F5FB00206061E068FFF7F0FB0020D4
:101D0000E060A06910B1A069FFF788FC21460320BC
:101D1000FFF779FE0020B8E701460878704710B554
:101D200004462078052818D2DFE800F009080607E5
:101D300003006FF0050010BD00BF00BF00BF60686A
:101D400010B96FF00500F6E7606800690068086088
:101D500060680069C088108000BF00BF002020724A
:101D6000E9E710B504462078052810D2DFE800F036
:101D70000706040503000AE000BF00BF07E0606833
:101D800000690860606800698088108000BF00BF3B
:101D90000020207210BD2DE9F04104460E46174682
:101DA0001CB96FF00600BDE8F081207840B12069D1
:101DB00030B9FFF78BFB206110B94FF0FF30F2E72D
:101DC0000420FFF701FE050002D1401E2072EAE761
:101DD000022028706C60AE60AF81284600F0FDFAEA
:101DE0000021E068FFF796FC29460420FFF70BFE70
:101DF00094F90800D7E72DE9F04104460E4617464E
:101E00001CB96FF00600BDE8F081206930B9FFF71A
:101E10005DFB206110B94FF0FF30F4E70420FFF7BD
:101E2000D3FD050001D1401EEDE7032028706C6052
:101E3000AE60AF81284600F0D0FA0021E068FFF7DD
:101E400069FC29460420FFF7DEFD94F90800DAE773
:101E500070B5044614B96FF0060070BD0420FFF79A
:101E6000B3FD050001D1401EF7E7042028706C6027
:101E7000284600F0B2FA0021E068FFF74BFC294643
:101E80000420FFF7C0FD94F90800E6E770B50446AA
:101E900014B96FF0060070BD606938B9FFF716FB22
:101EA0006061606910B94FF0FF30F4E70420FFF77C
:101EB0008BFD050002D1401E2072ECE70520287042
:101EC0006C60284600F089FA0021E068FFF722FCE8
:101ED00029460420FFF797FD94F90800DBE738B5A1
:101EE00004460CB9002038BD69466069FFF712FC52
:101EF000606A20B1002201212046636A9847009859
:101F0000F1E7F8B504460CB90020F8BD206918B90E
:101F1000FA2020720020F8E7207A08B10020F4E7C8
:101F2000207800284ED16068007D012803D1FA2076
:101F300020720020E9E70220FFF746FD05461DB9A3
:101F4000FF2020720020E0E769462069FFF7E2FBEE
:101F5000009828B100980789208CC01B208400E0DD
:101F60000027009848B929460220FFF74CFD206958
:101F7000FFF7B5FA00202061C7E7009828600098B5
:101F800068600020A881A8600420FFF71DFD0600FE
:101F900003D1FF2020722846B7E708203070746014
:101FA0001DB128680189318101E00121318130466C
:101FB00000F013FA0021E068FFF7ACFB3146042083
:101FC000FFF721FD2846A0E770B504460E4614B978
:101FD0006FF0060070BD207A10B194F90800F9E79F
:101FE0000420FFF7F1FC050002D1401E2072F1E74A
:101FF000072028706C603168A960284600F0EDF970
:102000000021E068FFF786FB29460420FFF7FBFC70
:1020100094F90800DEE72DE9F04104460E46174624
:1020200098461CB96FF00600BDE8F081207A10B127
:1020300094F90800F8E7A06940B90020FFF798FA82
:10204000A061A06910B94FF0FF30EDE70420FFF761
:10205000BBFC050002D1401E2072E5E70920287074
:102060006C6001206070AE6085F80E80AF812846FC
:1020700000F0B3F90021E068FFF74CFB294604208B
:10208000FFF7C1FC00206070A06920B1A069FFF7D4
:10209000C5FA0020A06194F90800C5E770B50446B0
:1020A00014B96FF0060070BD0420FFF78DFC050029
:1020B00002D1401E2072F6E70520607000BF0A20A2
:1020C00028706C60284600F088F90021E068FFF76E
:1020D00021FB94F90800401C05D1A06918B1A06942
:1020E000FFF755FBEBE70020607029460420FFF75F
:1020F0008AFC94F90800D6E7014691F90800704778
:102100002DE9F04707468946154698463C4634B9BE
:10211000284600F018FB6FF00600BDE8F087206944
:1021200098B184F8088025B12E89208C3044208411
:1021300000E00026606A20B1324600212046636A32
:10214000984729462069FFF7D5F90020E5E770B5E3
:1021500005460E462C4654B16078012802D06078BE
:10216000052804D1A06910B1A069FFF74EFA00203C
:1021700070BD2DE9F04104460E4617462546002164
:10218000E868FFF7B7F90020BDE8F08170B50546B3
:102190000E462C46002060602672206950B1606AAD
:1021A00020B1002211462046636A98470021206929
:1021B000FFF7A0F9E06818B10021E068FFF79AF98D
:1021C000606950B1606A20B1002211462046636AFE
:1021D000984700216069FFF78DF9A06910B1A069E7
:1021E000FFF713FA70BD70B50446656821462846AE
:1021F00003F08AFD7C49284603F08CFD7B49284684
:1022000003F08AFD04227A49284603F089FD7949C2
:10221000284603F083FD70BD03460020704710B5CB
:1022200004462068406828B12168C8680021FFF78B
:1022300061F910BD0020216808722068007870B92B
:1022400003F064FD216848602068406818B9FF20E9
:102250002168087203E02068FFF7C5FF00BF00BFD8
:102260002168C8680021FFF745F900BFE1E710B514
:1022700004462068C06820B12168C8680021FFF7C3
:1022800039F910BD10B504462168C8680021FFF770
:1022900031F910BD2DE9F04105460F4616462C4692
:1022A0001CB96FF00600BDE8F0812672207818B9DD
:1022B00016B92046FFF797FF0021E068FFF71AF9EB
:1022C0000020F0E710B5044620684068A8B92068EF
:1022D000007880B903F01AFD2168486020684068E2
:1022E00040B9FF20216808722168C8680021FFF703
:1022F00001F910BD00BF00BF00BF2068007868B9B9
:102300002068FFF770FF3C4821684968C86322894C
:10231000D4E90031586803F041FC00BF00BF00BFA2
:1023200000BFE6E710B504462168C8680021FFF742
:10233000E1F810BD10B504462168C8680021FFF718
:10234000D9F810BD0168496829B10168097801B957
:1023500000E000BF00BF704710B504462068406829
:1023600028B12068007800B900E000BF00BF2168F4
:10237000C8680021FFF7BEF810BD10B504462168FB
:10238000C8680021FFF7B6F810BD70B50446206894
:10239000406880B12068007858B92289D4E90031BA
:1023A000586803F048FC2189884201D16FF001058B
:1023B00000E000BF00BF70BD10B504462168C868CA
:1023C0000021FFF797F810BD10B5044620780B4A9E
:1023D00052F82010201D884710BD10B50446204635
:1023E000FEF7B0FE10BD00000121000873210008B7
:1023F0004F2100088D210008952200086C00002064
:1024000030B50388AC4C1919884213D04B688BB98E
:10241000AA4B1B6899420DD0A94B1B688B4201D176
:10242000A74B18600B880380A34BC31A0C88A24DDE
:102430002C4463804388A04C1A1982420FD0536801
:102440006BB99F4B1B68834201D19D4B1A60038877
:102450001380994BD31A0488974D2C44638030BD68
:1024600010B54FF4006194480CF047FB924C4FF4C8
:102470000060208000206080606004F500608F496B
:102480000860012009684860C0028C49096808801A
:102490008A49096848800120FFF76AF8894908607D
:1024A00020468749086010BD70B5044604B970BD68
:1024B00084480068FFF76BF97F48844203D37F4864
:1024C0000068844204D37F480068FFF79EF8EEE777
:1024D000A4F108050020686079480068854201D2AF
:1024E000774805602846FFF78BFF76480068FFF7BE
:1024F0008CF800BFDBE72DE9F04707460C46E117F3
:1025000004EB91718910B4EB810105D004F0030054
:10251000C0F10400204484B2B4F5006F02DD002055
:10252000BDE8F08767480068FFF731F962488742E5
:1025300003D362480068874201D33846F0E7A7F129
:1025400008065D48301A1FFA80F83088A0EB0800B2
:1025500008381FFA80FA04F1140050451BD208F124
:10256000080020441FFA80F9534800EB09050020B9
:10257000686030882880A5F80280A6F80090288836
:10258000B0F5006F04D028884B490844A0F80290A9
:102590002846FFF735FF4B480068FFF736F8384606
:1025A000BEE72DE9F041044614B90020BDE8F081F2
:1025B000E11704EB91718910B4EB810105D004F0AF
:1025C0000300C0F10400204484B2B4F5006F01DDC3
:1025D0000020EBE73B480068FFF7D9F8384800884F
:1025E0003549401A86B246E0334885196868E0BB31
:1025F000298806F10800091A04F10800814238D33D
:1026000006F1080020441FFA80F82B4800EB080769
:102610007E8028883880A5F800803888B0F5006F63
:1026200004D0388824490844A0F80280002078604B
:102630000120686022480068854211D106E02048E8
:10264000006800881C4908441D4908601C4800684F
:10265000406828B11A480068184909688842EED1D4
:1026600018480068FEF7D1FF00E002E005F108001D
:102670009CE71148865BB6F5006FB5DB1148006832
:10268000FEF7C3FF002091E770B505460C462046D3
:10269000FFF787FF064626B921462846FFF72BFF9E
:1026A00070BD2246294630460CF000FA2846FFF756
:1026B000FBFE3046F4E70000A40E00209800002046
:1026C0009C000020A000002070B50025FD48FE49B8
:1026D000086008460468002610E004F190002060BD
:1026E00080202081608104F1130020F003006060ED
:1026F0000220A08125462468701C86B2102EECDBD7
:1027000000202860F1490870F14908700120FEF7A7
:102710002FFFF049086070BD0021ED48007808B136
:10272000002070470120E94A1070E948007828B974
:10273000E548016811B1E44A086810600020E34AE6
:1027400010700846EDE770B504460CB9002070BD66
:10275000002532E0E089401EE081E08960BB266808
:10276000A089022816D180202081608104F1100008
:10277000606000BFD7480068FFF709F800BFD24883
:1027800000682060D048046000BFD2480068FEF7AF
:102790003CFF0DE0A089012802D0A089042804D1C3
:1027A00021460020FFF72FF902E02046FFF77CFECC
:1027B000681CC5B2344600E00024002CCAD128466B
:1027C000C5E72DE9F05F83460F4692460026BBF130
:1027D000000F09D0BBF1010F0AD0BBF1020F0BD0E3
:1027E000BBF1030F0DD10BE006F1140086B200BF60
:1027F00006F1140086B200BF06F10E0086B203E0B7
:1028000002E00020BDE8F09F00BFBAF1000F4BD0FE
:10281000BAF1010F64D0BAF1020F62D0BAF1030F1E
:1028200074D1FFF779FF04460CB90020EAE70020D5
:10283000206006F110002044C01C20F003006060FE
:102840002781C6F18000B84202DAC6F1800000E0BC
:10285000384660810120E081A0466089A7EB00092D
:102860001EE0FFF759FF054625B92046FFF76BFF2D
:102870000020C7E700202860C8F80050A5F808909D
:10288000B9F1800F01DD802000E04846688105F144
:10289000100068600120E8816889A9EB0009A8465A
:1028A000B9F1000FDDDC33E006F1130121F0030282
:1028B000F91C21F00301114488B2FFF772FE0446AF
:1028C0000CB900209EE704F110003044C01C20F039
:1028D000030060602781678100202060A08117E0ED
:1028E00000BF0020FFF770F804460CB9002089E70C
:1028F00000206060278167812060BAF1010F02D15A
:10290000012001E002E00420A08101E0002079E73D
:1029100000BF0120E081204674E72DE9F041064622
:102920000F463089B84201DCBDE8F0813089381AA1
:102930000FFA80F83D46344606E06089281A85B2D1
:1029400020894044208124686089A842F5DBA08961
:1029500048B96089A84206D0A088001B284481B2EB
:102960002046FFF7C8FD658160892081206810B18D
:102970002068FFF7E8FE0020206000BFD4E710B514
:10298000024601B10AB9002010BD5368908910B108
:10299000908902280AD15068401A506002F1100054
:1029A0005468844214D253600120EDE790890428D2
:1029B00002D0908901280BD1002907DA5089081A22
:1029C000002803DC5068401A506001E00120DBE77A
:1029D0005089084450811089084410810020D3E7B1
:1029E0000146002002E0421CD0B209680029FAD159
:1029F000704710B1C189491CC181704710B50246AA
:102A000002B101B910BD104604E003890C892344CA
:102A1000038100680368002BF7D103890C892344E4
:102A20000381016000BFEDE730B505460C46214645
:102A30002846FFF7E3FF2046FFF7DBFF30BD00B578
:102A400002460B4612B10BB19A4200D100BD02E022
:102A5000106800B1126810680028F9D11360184698
:102A6000FFF7C7FF00BFF1E7014600E009680A89E8
:102A70004B899A42FAD1086800220A6070472DE912
:102A8000F04104460026274600BFA08904283AD119
:102A90006089802806DC618903221046FFF791FED9
:102AA000054600E0002535B9618900220320FFF7C3
:102AB00088FE054600BF05B320682860002020601E
:102AC00066B109E0B0160020A4000020A900002093
:102AD000A8000020AC000020356000E02F4662898D
:102AE000616868680BF0E2FF20892881608968814D
:102AF0002046FFF728FE2C4605E03846FFF723FE68
:102B00000020BDE8F08126462468002CBDD138465F
:102B1000F7E770B504460126256865B1208961890B
:102B2000401A288100202060608920812846FFF714
:102B30000AFE064600BF002E01DD002070BD2846BB
:102B4000FCE700000146002901DB042901DD00202B
:102B5000704701EB8100F84B03EB8002106808B965
:102B60000020F5E71046F3E770B50546F348006826
:102B700020B90120FEF7FCFCF0490860EF4800682E
:102B8000FEF705FE002432E004EB8400EA4951F828
:102B9000200058BB04EB840041F82050002004EBD7
:102BA0008401E54A02EB8101486004EB840102EBF9
:102BB0008101088104EB840102EB8101488101203D
:102BC00004EB840102EB81018881002004EB840185
:102BD00002EB8101C88104EB840102EB81010861F1
:102BE000D6480068FEF711FD204670BD641C042C19
:102BF000CADBD2480068FEF708FD4FF0FF30F4E76B
:102C00002DE9F04707468846914687B1FC69002CBC
:102C100007DAB8F1000F02D1F869401EF861BDE88B
:102C2000F0872046FFF78EFF05460DB9F7E7F6E778
:102C3000C348006820B90120FEF79AFCC04908602B
:102C4000BF480068FEF7A3FDB8F1000F09D0B8F146
:102C5000010F0AD0B8F1020F0BD0B8F1030F0ED15B
:102C60000AE06889401C688109E06889401E688123
:102C700005E00120A88102E00020A88100BF00BF7C
:102C8000AF480068FEF7C1FC3EE0AD480068FEF7C3
:102C90007EFDAC48066824E0306908BB716871B1FC
:102CA000E11704EB5171C9107268515C04F007031D
:102CB00001229A40114202D0688900B113E0B16844
:102CC00071B1E11704EB5171C910B268515C04F0A5
:102CD000070301229A40114202D0A88900B102E004
:102CE0003668002ED8D100BF4EB101203061944823
:102CF0000068FEF78AFC7069FEF787FC04E09048E4
:102D00000068FEF782FC00E0BFE700BF00BF86E777
:102D10002DE9F04387B08146884616464846FFF7BE
:102D200011FF044624B94FF0FF3007B0BDE8F0832F
:102D30002068FFF7D4F8054605AA06A92846FEF73D
:102D4000EEFF0020019002900390049010208DF877
:102D5000040002208DF80500BDF8140000F022FEEA
:102D6000ADF80600069802903068102801D91020AE
:102D7000306001A9404632680BF098FE2846FFF704
:102D8000F3FE0746781C09D12846FEF77AFF00BFFC
:102D90006920206100BF4FF0FF30C6E76A486862D3
:102DA0003846FFF7CFFE044664480068FEF7EFFCA4
:102DB0006089E969C1F1FF3108446081EF615F48D2
:102DC0000068FEF722FC00BF0020206100BF3846EB
:102DD000ABE72DE9F84F80460E4692464046FFF796
:102DE000B1FE05461DB94FF0FF30BDE8F88F7068A1
:102DF00000907788384600F08EFF81464A46694643
:102E00002868FEF7C8FF04466CB100BF0B2C04D243
:102E10004E48614250F8210000E00520286100BFC3
:102E20004FF0FF30E1E700BF0020286100BF00BF86
:102E3000DBE770B505464148006820B90120FEF780
:102E400097FB3E4908603D480068FEF7A0FC284615
:102E5000FFF778FE044634B938480068FEF7D5FB22
:102E60004FF0FF3070BD2068FEF70BFF606810B1B7
:102E70006068FEF7F6FD00206060208120602F482A
:102E80000068FEF7C2FB00BF0020206100BF00BF4A
:102E9000E8E72DE9F84F07460E4691463846FFF71A
:102EA00051FE05461DB94FF0FF30BDE8F88F707830
:102EB00020B92868FEF7CCFF04460EE07068009049
:102EC000B6F80280404600F026FF82465246694628
:102ED0002868FEF790FF044600BF6CB100BF0B2CC2
:102EE00004D21A48614250F8210000E00520286110
:102EF00000BF4FF0FF30D8E700BF0020286100BFBF
:102F000000BFD2E72DE9F04106460F463046FFF7F5
:102F100019FE05461DB94FF0FF30BDE8F081286865
:102F2000FEF7B4FF0446CCB100BF0B2C10D207480B
:102F3000614250F821000CE0B01F0020B4000020D6
:102F4000B8000020B0000020012C0008BC000020C8
:102F50000520286100BF4FF0FF30DEE700BF0020F2
:102F6000286100BF00BFD8E72DE9FF4F85B091462B
:102F70009A46139F0598FFF7E5FD044624B94FF0E4
:102F8000FF3009B0BDE8F08F606808B1666819E0ED
:102F90001AF0400F03D1E08910F4006F08D0608967
:102FA00030B900BF0B20206100BF4FF0FF30E8E7D1
:102FB0002068FEF7A6FF064626B900BF0020206164
:102FC00000BFDEE73046FEF7A4FD80462089A8EB6F
:102FD00000001FFA80F8C14501DD454601E01FFAF7
:102FE00089F523892A4630460699FEF7B8FD1298DE
:102FF00030B32FB33046FEF7E5FD83463046FEF78B
:10300000E4FD0490002000900190029003901020B5
:103010008DF8000002208DF80100049800F0C2FC39
:10302000ADF80200DBF8000001903868102801D9E3
:103030001020386069463A6812980BF037FD00BFDF
:103040002068FEF769FE40B9A8EB0500002804DD02
:10305000666020892844208105E00020606020818E
:103060003046FEF7FEFC00BF0020206100BF28466E
:1030700087E77CB504460D461646002000900346BF
:103080003246294601902046FFF76EFF7CBD2DE9B0
:10309000FC4104460D4616461F46002000903B4664
:1030A0003246294601902046FFF75EFFBDE8FC81CD
:1030B0002DE9F0478046894616469A464046FFF776
:1030C00041FD04461CB94FF0FF30BDE8F087206891
:1030D000FEF722FE052828D2DFE800F01F040506CF
:1030E000030000BF00BF00BFFEF7AEFC074637B9C4
:1030F00000BF6920206100BF4FF0FF30E5E7B2B2AA
:1031000049463846FEF7DFFC39462068FEF75CFF8B
:1031100005463846FEF7A5FC0AE0B2B2012349464F
:103120002068FEF778FF054602E06FF0070500BF54
:1031300000BF6DB100BF0B2D04D2FE48694250F8AC
:10314000210000E00520206100BF4FF0FF30BCE708
:1031500000BF0020206100BF3046B6E72DE9F04FE8
:1031600085B00746884691469A460E9D3846FFF739
:10317000E9FC044624B94FF0FF3005B0BDE8F08FFC
:1031800002AA03A92068FEF7CAFD08B9012000E0E1
:1031900000208346686804906E88304600F0BBFDCE
:1031A0000090206804A9009AFEF725FE53464A467F
:1031B00041463846FFF77CFF0190BBF1000F06D077
:1031C000BDF8082003A92068FEF715FE02E020687C
:1031D000FEF73EFE0198D0E72DE9F04180460E460D
:1031E0001746012E10D0022E08D0032E12D1B9B2EC
:1031F000D14A0420FEF7ECFC04460FE0CE49012042
:10320000FEF736FD044609E0CB490020FEF730FD0D
:10321000044603E04FF0FF30BDE8F08100BF14B971
:103220004FF0FF30F8E72046FFF79EFC0546681C8C
:1032300005D12046FEF725FD4FF0FF30ECE7E561B4
:103240002846E9E770B504460D4616460023324687
:1032500029462046FFF72CFF70BD2DE9FE4F814621
:103260000E4617469A464FF0000800200290019043
:10327000009000244EE0E11704EB5171C910715C1D
:1032800004F0070301229A4011421CD02046FFF7A8
:1032900059FC0546BDB1686808B9688998B1E1175D
:1032A00004EB5171C91002AA515C04F0070301221A
:1032B0009A4011432046E21704EB5272D21002AB3F
:1032C000995408F10108E11704EB5171C910795CB8
:1032D00004F0070301229A4011421AD02046FFF75A
:1032E00031FC0546ADB1A88998B1E11704EB5171E5
:1032F000C91001AA515C04F0070301229A4011434E
:103300002046E21704EB5272D21001AB995408F137
:103310000108641C4C45AEDBBDF808003080BDF8E8
:10332000040038800020AAF800004046BDE8FE8F67
:103330002DE9FF4F89B00C4615461E46169F00200A
:10334000009001940295039604907C48006820B98F
:103350000120FEF70DF97949086078480068FEF70A
:1033600016FA14B12088089001E00020089015B1E9
:103370002888079001E00020079016B13088069059
:1033800001E00020069006AB07AA08A90998FFF7FC
:1033900064FF8146B9F1000F6FD1A7B1386890B9C9
:1033A000786880B965480068FEF72FF90CB10020F5
:1033B00020800DB1002028800EB100203080002038
:1033C0000DB0BDE8F08F0020FEF7D2F805905C4804
:1033D000006800905A49C1F800D058480068FEF7CC
:1033E00014F917B94FF0000A0DE0786800F5FA708B
:1033F0004FF47A7190FBF1F0396801EB4102C2EBB6
:10340000C11100EBC10A51460598FEF777FA8346D1
:103410004A480068FEF7BBF9494800686946884297
:1034200003D147490098086012E04548D0F8008071
:103430000AE06946D8F80000884203D10098C8F82D
:10344000000004E0D8F80080B8F1000FF1D100BF0F
:103450003A480068FEF7D9F80598FEF7DFF8BBF1A7
:10346000000F0BD10CB1002020800DB1002028806E
:103470000EB1002030800020A2E719E014B12088AE
:10348000089001E00020089015B12888079001E01D
:103490000020079016B13088069001E000200690C9
:1034A00006AB07AA08A90998FFF7D7FE814603E0F3
:1034B00022480068FEF7A9F814B1BDF8200020806A
:1034C00015B1BDF81C00288016B1BDF81800308079
:1034D000484675E770B504460D462046FFF7A9FC3F
:1034E00070BDF0B585B007460E4614463846FFF766
:1034F00029FB05461DB94FF0FF3005B0F0BD002097
:10350000019002900390049010208DF80400022096
:103510008DF805000DF1060269462868FEF7FFFBED
:10352000BDF8060000F03EFAADF8060000980290E3
:10353000206807E0BC000020012C0008B800002033
:10354000B0000020102801D91020206001A93046C9
:1035500022680BF0ABFA00BF0020286100BF00BF5B
:10356000CBE7F0B585B007460E4614463846FFF760
:10357000E9FA05461DB94FF0FF3005B0F0BD002057
:10358000019002900390049010208DF80400022016
:103590008DF805000DF1060269462868FEF7E1FB8B
:1035A000BDF8060000F0FEF9ADF8060000980068CE
:1035B00002902068102801D91020206001A930460F
:1035C00022680BF073FA00BF0020286100BF00BF23
:1035D000D3E72DE9F0478246894616461D46089FE7
:1035E0004FF000085046FFF7ADFA04461CB94FF003
:1035F000FF30BDE8F08705B137B900BF0E2020616C
:1036000000BF4FF0FF30F4E7B9F1000F24D0B9F15B
:10361000060F31D0A9F57060FF3844D1202E0DD0AF
:1036200004DC022E09D0082E11D109E0A6F5805045
:10363000073804D001280AD103E000BF00BF00BF53
:1036400000BF3868042801D24FF0160802E04FF09E
:103650005C0800BF00BF29E0012E02D0022E06D177
:1036600000BF3868042801D24FF0160802E04FF07E
:103670005C0800BF00BF19E03868042802D24FF090
:10368000160813E02068007808B10020B1E7012E89
:1036900002D0022E02D100E000BF02E04FF05C0831
:1036A00000BF00BF02E04FF05C0800BF00BFB8F1F0
:1036B000000F06D000BFC4F8108000BF4FF0FF30ED
:1036C00097E7B9F1000F3ED0B9F1060F4BD0A9F53D
:1036D0007060FF385BD1202E0DD004DC022E09D0A3
:1036E000082E2ED108E0A6F58050073824D00128F6
:1036F00027D107E000BF00BF206840680089304044
:1037000028601EE02068007805280FD2DFE800F06E
:1037100006090A0B0300032028600BE00120286043
:1037200008E000BF00BF0220286003E020680078A6
:10373000286000BF00BF04E02069286000202061ED
:1037400000BF00BF23E0012E06D0022E09D1206861
:103750004068C07A286004E020684068807A286069
:1037600000BF00BF13E0012E02D0022E0DD107E0F2
:103770002068406890F8270000F04000286004E0CE
:1037800020684068C06A286000BF00BF00BF00BF5B
:1037900000BFC4F8108000BFB8F1000F02D04FF096
:1037A000FF3026E7002024E72DE9F04782468946CE
:1037B00015461E46DDF820805046FFF7C3F9044643
:1037C000002714B9781EBDE8F08736B900BF0E2077
:1037D000206100BF4FF0FF30F5E7B9F1000F14D0C2
:1037E000B9F1060F1FD0A9F57060FF3830D1082D50
:1037F00002D0202D05D100BFB8F1040F00D216274A
:1038000001E05C2700BF00BF24E0012D02D0022DA3
:1038100005D100BFB8F1040F00D2162701E05C27E4
:1038200000BF00BF16E0B8F1040F01D2162711E067
:103830002068007808B10020C5E7012D02D0022DD4
:1038400002D100E000BF01E05C2700BF00BF01E043
:103850005C2700BF00BF2FB100BF276100BF4FF042
:10386000FF30B0E7B9F1000F1FD0B9F1060F2CD02F
:10387000A9F57060FF384CD1082D02D0202D12D14F
:1038800000BF306838B1206840680089284321684B
:103890004968088106E0206840680089A8432168DB
:1038A0004968088100BF00BF33E0012D06D0022D1A
:1038B00009D1307821684968C87204E030782168FD
:1038C0004968887200BF00BF23E0012D02D0022D9D
:1038D0001DD117E0306850B12068406890F827008B
:1038E00040F040002168496881F8270009E020681D
:1038F000406890F8270020F040002168496881F86E
:10390000270004E0306821684968C86200BF00BF32
:1039100000BF00BF00BF276100BF17B14FF0FF30ED
:1039200051E700204FE72DE9F04107460E461546C6
:103930003846FFF707F904461CB94FF0FF30BDE8E1
:10394000F0811748301813D06FF04041401820D153
:1039500035B900BF1620206100BF4FF0FF30EEE701
:103960002068008C288000BF0020206100BFE6E7AF
:1039700035B1286820B1E08940F40060E08103E0BF
:10398000E08920F40060E08100BF0020206100BFDA
:10399000D5E700BF2620206100BF4FF0FF30CEE703
:1039A0008299FB7F01460806000C40EA112070470F
:1039B00030B503460C46002203E0188802449B1CE5
:1039C000A41E012CF9DC07D119784FF6FF7505EA22
:1039D0000120FFF7E7FF024490B200EB1242100C07
:1039E000000402D090B200EB124290B230BD2DE93B
:1039F000F05F80460E4617469946DDF828B0002451
:103A0000A24645461BE069896868FFF7D1FF044478
:103A100002E0A0B200EB1444200CFAD1688900EB5C
:103A2000D0714910B0EB410108D0CAF1010000F09B
:103A3000FF0AE0B2C4F3072141EA00242D68002DFB
:103A4000E1D1BAF1000F04D0E0B2C4F3072141EA9A
:103A50000024308880B2044430684FF6FF7101EAD8
:103A600010400444388880B20444386801EA1040A9
:103A700004444846FFF796FF04445846FFF792FF78
:103A8000044402E0A0B200EB1444200CFAD1E0435D
:103A900080B2BDE8F09F70B505460E463146284617
:103AA000FFF786FF044602E0A0B200EB1444200CAE
:103AB000FAD1E04380B270BD2DE9F0410646002402
:103AC000002735461AE069896868FFF771FF0444EA
:103AD00002E0A0B200EB1444200CFAD1688900EB9C
:103AE000D0714910B0EB410107D0C7F10100C7B256
:103AF00004F47F40E1B240EA01042D68002DE2D1D8
:103B000027B1E0B2C4F3072141EA0024E04380B2C8
:103B1000BDE8F0810146080601F47F4240EA022038
:103B200001F47F0240EA122040EA116070472DE95B
:103B3000FF47064688466F46347800BF302C01DBCD
:103B4000392C03DD002004B0BDE8F08700254FF0DC
:103B50000A0A302C0ED1701C06460478782C01D04D
:103B6000582C05D14FF0100A701C0646047801E06D
:103B70004FF0080A00BF302C09DB392C07DCA4F118
:103B8000300005FB0A05701C06460478F3E7BAF11D
:103B9000100F1BD1302C01DB392C07DD612C01DB30
:103BA000662C03DD412C11DB462C0FDC612C03DB82
:103BB0007A2C01DC612100E0412104F10A00401A65
:103BC00040EA0515701C06460478D4E700BF00BF24
:103BD0002E2C09D103A8874201D30020B3E720C7C8
:103BE000701C06460478A9E700BF00BF8CB1202CEA
:103BF0000DDB7F2C0BDC202C0BD00C2C09D00A2CDD
:103C000007D00D2C05D0092C03D00B2C01D000209F
:103C100099E76846381A012101EBA009B9F1050FAF
:103C20002AD2DFE809F00305060F1B0000208AE70F
:103C300022E0B5F1807F01D3002084E7009845EAB7
:103C4000006519E0B5F5803F01D300207BE70098BF
:103C50000006019940EA014005430DE0FF2D01D91E
:103C6000002070E700980006019940EA014002999F
:103C700040EA0120054300BF00BFB8F1000F04D0A7
:103C80002846FFF747FFC8F8000001205BE718B59A
:103C9000044669462046FFF74AFF08B1009818BD60
:103CA0004FF0FF30FBE7F1B582B002980190204958
:103CB00001AA002427E0002300BF10780A2690FB09
:103CC000F6F706FB1700C5B2107890FBF6F01070FF
:103CD00005F13000C7B218465E1CF3B20DF8007053
:103CE00010780028E9D103E01DF8030001F8010B6A
:103CF0001800A3F10106F3B2F6D12E2001F8010B52
:103D0000521C601CC4B2042CD5DB0026481E0146A0
:103D100006700748FEBD00B502461046FFF742FE9A
:103D200000BD00B503461846FFF7F4FE00BD0000D5
:103D300000200020FA4908807047C2780A44F94BF5
:103D4000DA70827802EB21229A7042785A700278F7
:103D50001A701A469278B2EB212F0ADA1A46527874
:103D6000521C5A701A4652781AB91A461278521CC6
:103D70001A70EC4AD278CBB29A4212DAE94A9278B7
:103D8000521CE84B9A701A46927852B91A465278E9
:103D9000521C5A701A4652781AB91A461278521C96
:103DA0001A707047F0B50B46144619461E19751E59
:103DB0000BE04E780F7806EB0726B2B28618B0B249
:103DC000904201DA461CB0B2891CA942F1D3A94243
:103DD0000AD10E78002707EB0626B2B28618B0B2D9
:103DE000904201DA461CB0B2F0BD0146080240EA3A
:103DF000212080B2704770B504460D462A46214600
:103E00000020FFF7CFFF0646FFF7EFFF70BD10B5AC
:103E10001422C5490020FFF7C5FF044614B94FF628
:103E2000FF7010BD2046FFF7E0FFFAE770B50446CB
:103E3000BD48001FC179807901EB0020143885B29C
:103E4000281986B20822B8490C313046FFF7AAFF7C
:103E500006462A46B44914313046FFF7A3FF06460A
:103E600016B94FF6FF7070BD3046FFF7BEFFFAE798
:103E700010B50620FFF7DAFF10BD10B51120FFF7CF
:103E8000D5FF10BD0020A94908700AE00020A8490C
:103E9000A64A127821F81200A4480078401CA349D1
:103EA0000870A24800780128F0DB00209F490870C4
:103EB0000DE000209D49097801EB81019D4A02EB4C
:103EC000C101487699480078401C98490870974885
:103ED00000780528EDDB4FF48060974908800020CA
:103EE000924908700DE000209049097801EB8101AA
:103EF000924A02EB810188808C480078401C8B49F3
:103F000008708A4800780528EDDB704730B5044614
:103F10000D4600BF88480088401C87490880084635
:103F20000088B0F5FA4F02DB4FF480500880002083
:103F30007E49087015E07D48007800EB80007D49DF
:103F400001EBC002507E38B17B480088FFF74DFF7F
:103F50009188884200D1DDE774480078401C73499D
:103F60000870724800780528E5DB002200206F49C0
:103F7000087018E06D48007800EB80006D4901EB97
:103F8000C003587E08B91A4611E0587E072805D1AB
:103F90001AB1588B518B884200DD1A46634800786D
:103FA000401C62490870614800780528E2DB00BFC8
:103FB0000AB9002030BD02205076614800781073A5
:103FC0005F484178517381789173C178D17340F221
:103FD000BE50508290820120108200201077012074
:103FE000508332201076002090751020D0755248F2
:103FF0000088FFF7FAFE9080D58020681060104698
:10400000D8E730B503460C4600BF4B480088401C3B
:104010004949088008460088B0F5FA4F02DB4FF4A2
:104020008050088000204149087013E04248008811
:10403000FFF7DBFE3D49097801EB81013F4D05EBC0
:1040400081018988884200D1DFE738480078401C28
:1040500036490870354800780528E7DB0022002043
:104060003249087014E03148007800EB8000334991
:1040700001EB8000808830B92C48007800EB80008C
:1040800001EB800208E029480078401C27490870AD
:10409000264800780528E6DB00BF0AB9002030BDBD
:1040A0002548007800022449098840EA21209080B0
:1040B000D48013B90020106001E01868106040201F
:1040C00010721046EBE70021184A117012E01849EF
:1040D000164A127831F81210814206D10021144A92
:1040E000124B1B7822F81310704710490978491CAD
:1040F0000E4A11700D4909780129E8DB00BFF3E78A
:1041000000210A4A117022E00949084A127831F860
:104110001210B9B90649054A127821F81200704701
:10412000180100202001002014200020240100207C
:1041300010010020FC2500201E010020C4260020C4
:104140001A010020FE490978491CFD4A1170FC49FA
:1041500009780129D8DB00BFE1E710B50446214604
:10416000F84800680830FFF7E8FDF7480078F5499F
:1041700009680872F4484178F24800684172F248D0
:104180008178F04800688172EF48C178ED48006896
:10419000C17210BD70B50546EA480468042D00D10F
:1041A000C9E1EA48EA490860EA490860032D19D1E3
:1041B000607E00F00F00032807D1208A28B908206C
:1041C000E549087001F056FAECE3607E00F00F005C
:1041D000022805D10021DD482C3880F82510ABE3FA
:1041E00000F049BF022D6AD1DC48C078401C10F0B5
:1041F000FF00DA49C87011D108468078401C10F0E1
:10420000FF0088700AD108464078401C10F0FF007B
:10421000487003D108460078401C08700020D0493F
:104220000880D0490880607E072802D0607E05287B
:1042300008D1608B401C6083608B78285AD10020A5
:10424000607657E0607E002854D0208AB0B3618B3E
:10425000481E608300294DD1207F082808D0607E49
:10426000022802D0607E01280FD1207F04280CD1C3
:10427000002060768020B849087001F0FBF9142115
:10428000B2482C3880F82510FEE3207F042801DD99
:10429000042000E0207F322181406183207F401C88
:1042A0002077607E00F00F00092823D2DFE800F0BD
:1042B0002205080E14221522160038E30FE01AE03A
:1042C0000021A2482C3880F8251035E30420A249AB
:1042D000087001F0CFF9FDE300BF00BFFBE3607E93
:1042E00000F00F00032805D108209B49087001F059
:1042F000C1F969E774E7052D18D19B4800688088EB
:1043000098B100208F49086090480C3890490860A7
:10431000904908600020934908809149088008204E
:104320008D49087001F0A6F905E159E787482C3856
:104330000079452800D053E784482C38C17980792A
:1043400001EB002086490988884208DC7F482C3828
:10435000C179807901EB00208149088000E03FE7C6
:104360007A482C38807A10F03F0F03D177482C38E8
:10437000C07A00B134E77D4800887D4909888842C9
:1043800005D17A4840887A49498888420ED06F48DA
:104390002C38808A75490988884206D16B482C38A8
:1043A000C08A72494988884200D019E7FFF72FFD7B
:1043B000A0F57F41FF3900D012E764482C38407BDC
:1043C000062800D11FE161482C38407B112800D11C
:1043D00030E05E482C38407B012800D000E75B4885
:1043E0002C38007E082800D0FAE6002157482C38E7
:1043F0000176408B4FF6F771884208DB53482C3822
:10440000408B093081B251482C38418307E04F4836
:104410002C38408B083081B24C482C3841834B48B3
:104420002C38014609694161504909680161402100
:104430000173EEE34A4800881C3849490880434824
:104440000C38434908602038C08B30B1FFF715FDA8
:10445000A0F57F41FF3900D0C2E63C482C38408BA4
:1044600000B9BDE64348404908604BE03E4800685B
:104470008088E8B335482C38408B3B4909688988E7
:1044800088423AD138480068C08838B12F482C3863
:10449000008B35490968C98888422ED132480068A6
:1044A000008833490988884206D12F48006840882F
:1044B0002F49498888421FD02B48006800882E4920
:1044C0000988884206D12848006840882A494988D6
:1044D000884211D01D482C38008A23490968098870
:1044E00088420AD119482C38408A1F49096800E0DF
:1044F00003E04988884200D10BE01B480068143073
:1045000019490860184801681A4864308142ADD3DF
:1045100066E600200B49086002200F4908700B482E
:104520000C380B4908600B49086000200D490880D1
:1045300001F0A0F800BF0B48008800B950E61DE06C
:10454000240100200C010020200100203C2000203C
:10455000FC00002000010020080100201A010020BA
:10456000040100200601002014010020EE000020BC
:1045700084100108C426002080100108FC4800882F
:104580001C30FC490880084600880112FA488171F5
:10459000F8480178F848C171F8480068017AF6488F
:1045A000017311214173F24800880830C0F30721DC
:1045B000EF480078083041EA002081B2EE4881835C
:1045C0000021C183ED4800688188EB480183EB48F6
:1045D0000068C188E8484183E94909680161E74901
:1045E0000968096841612C30E6490860FFF745FC1D
:1045F000C04381B2E048C183C08B18B94FF6FF7148
:10460000DD48C18315E7FFF733FCA0F57F41FF3993
:1046100000D0E5E5D848408B10B1D748008B00B9F1
:10462000DEE5D94C17E0607EA0B1D348408BA1886D
:1046300088420FD1D048008BE18888420AD1CE4809
:10464000008A2188884205D1CB48408A6188884207
:1046500000D1A8E12834CC48A0308442E3D9C64830
:1046600090F8250000F03F00022800D01BE0C2486F
:10467000408BC64908800020C54908700EE0C54837
:10468000C349097830F81100C0490988884200D12F
:104690007FE0BF480078401CBD490870BC480078E6
:1046A0000128ECDB00BFB44890F8250010F0040F9F
:1046B00000D095E51421B04880F825102820AD4998
:1046C00008805021AC4880F82410C07FB0490870A1
:1046D000A94890F82310C177AD480178A64880F822
:1046E0002310807FAA490870A34890F82210817790
:1046F000A7480178A04880F82210407FA44908709C
:104700009D4890F821104177A14801789A4880F897
:104710002110007F9E490870974890F8201001777B
:104720009B480178944880F8201090F82300401CA2
:1047300010F0FF01904880F8231018D190F8220063
:10474000401C10F0FF018C4880F822100FD190F827
:104750002100401C10F0FF01874880F8211006D18D
:1047600090F82000401CC1B2834880F82010824895
:10477000008B864908808048418B018383480188EB
:104780007D4841830146096941617D4909680161AC
:10479000F4E3002400207E49087030E07C48007873
:1047A00000EB8000784901EBC000407E30B97848CA
:1047B000007800EB800001EBC00424E0744800782E
:1047C00000EB8000704901EBC000407E072811D14A
:1047D0004CB16F48007800EB800001EBC000408BCB
:1047E000618B884206DD6A48007800EB80006649EC
:1047F00001EBC00466480078401C654908706448B5
:1048000000780528CADB00BF04B9E9E46248046007
:104810003220608320760020A0750420E0750020FF
:1048200020775548408BA0805348008BE080524849
:10483000006920600120607658480078207357484E
:10484000417861738178A173C178E173012020827E
:104850004948C17FE172817FA172417F6172007F0F
:1048600020720120FFF779FC434890F8240000F003
:10487000F00050285ADD0020454908704AE04448BD
:1048800000782C303C49085C45490870084600789F
:1048900000B94AE042480078012805D13C48007838
:1048A000401C3B49087035E03D480078022820D183
:1048B000374800782D303049085C042819D1344835
:1048C00000782F30095C324800782E302A4A105C7C
:1048D00041EA00202D4908800846008840F2BE5178
:1048E000884201DD084601E0284800886082A082F5
:1048F0001BE0274800782D301F49085C00B914E000
:10490000234800782D301C49085C21490978084467
:104910001F490870184890F824000521C1EB2010A9
:104920001B490978B1EB800FA9DB00BF00BF102144
:10493000114880F8251000BF0F4890F8250040F07E
:1049400002010D4880F82510022180F82C10042166
:1049500080F82D10052180F82E10BE2180F82F1030
:104960002C20044908806021034880F8241014E3B7
:104970000601002004010020102000201401002066
:10498000EE000020FC000020FC2500202601002075
:1049900024010020100100200C0100201A01002039
:1049A000250100201AE2FE4804600020FD4908703D
:1049B000FD4890F8250010F0040F06D00020607626
:1049C0002020087000F056FE55E3F74890F82400C8
:1049D00000118000F5490870F54800880978401AF0
:1049E0001438F3490880607E00F00F00022806D1D9
:1049F000ED4890F8250000F03F0012282AD0607E94
:104A000000F00F00012806D1E74890F8250000F0DB
:104A10003F0002281ED0E6480088002805DCE24856
:104A200090F8250010F0030F14D0DF48007F217AA2
:104A300088420ED1DC48417F607A814209D1DA4850
:104A4000817FA07A814204D1D748C17FE07A814238
:104A500000D094E2D44890F8250010F0100F57D001
:104A6000208AC8B3218A04F10C00FFF766F9CE480A
:104A700090F82000CF490978884249D1CA4890F877
:104A80002100CC49497800E07EE2884240D1C64806
:104A900090F82200C7498978884239D1C24890F8F5
:104AA0002300C449C978884232D1C24800782073B3
:104AB000C048417861738178A173C178E173207F28
:104AC000F8B9217EA27E891A48B2A17DA0EBE1014E
:104AD00048B202E0C2E111E11AE0A17D0144A175F2
:104AE000002801DA414248B2E17DA0EBA10148B2C1
:104AF000E17D0144E175E17DA27D01EBE2012176DA
:104B000000BF0120A7490870207E6083002020821A
:104B1000607E00F00F0009287AD2DFE800F0790506
:104B20002DC4F8F7F6F5F4009E48007810F0010F58
:104B300019D00320607640209A4908700020208216
:104B40009B480088002808DD0846007840F00200F5
:104B5000087097480088FFF700FB002096490880FE
:104B600000F088FD3AE1904890F8250000F03F0001
:104B7000022800D1DBE67EE28A48007810F0010FBF
:104B80007ED0894890F8250000F03F00122877D1A8
:104B9000854890F8240000F0F00050285CDD0020EB
:104BA000824908704CE0814800782C307E49085CCE
:104BB000824908700846007800B94CE07F480078C8
:104BC000012805D179480078401C7849087037E001
:104BD0007A480078022822D1744800782D30724932
:104BE000085C04281BD1714800782F30095C6F489D
:104BF00000782E306C4A105C41EA00207049088031
:104C00000846008840F2BE51884203DD084603E0B2
:104C1000B2E10EE26A4800886082A0821BE063482D
:104C200000782D306049085C00B914E05F480078D6
:104C30002D305D49085C5D49097808445B4908707E
:104C4000594890F824000521C1EB201057490978F4
:104C5000B1EB800FA7DB00BF032060765248007FD6
:104C600020725148417F6172817FA172C17FE172E0
:104C70000120FFF772FA42204A490870002000E044
:104C800007E020824A4908804B49088000F0F2FC86
:104C9000A4E020204349087000F0ECFC00204049CB
:104CA00009684876FFE4404890F8250010F0010FAD
:104CB0002ED0607E10F0100F2AD1208A00B1DAE1E8
:104CC0003B490988491C88B2FFF747FA3548007804
:104CD00040F010003349087035480088002804DD92
:104CE0000846007840F00200087000F0C3FC012084
:104CF0002082082060760020207700BF11212A48FA
:104D000080F8251040E1CBE02CE12CE109E1D4E072
:104D1000254890F8250010F0200F17D0224890F871
:104D20002B1090F82A0041EA00202649096808441F
:104D3000244908601C4890F82B1090F82A0041EA9A
:104D400000201B490988081A19490880184800885A
:104D500000280DDD607E10F0100F09D11148007899
:104D600040F002000F49087011480088FFF7F5F97C
:104D70000D4890F8271090F8260001EB002010490C
:104D80000880A08A0988884202DB0D48008810B993
:104D9000A08A0B4908800A4800886082014813E015
:104DA0000C01002008010020102000202401002018
:104DB0000401002020010020060100202501002020
:104DC00026010020FC000020007810F0030F66D0C0
:104DD0000020C749088000F04DFC00BFC54800789E
:104DE00010F0200F08D00020C149088060761421FF
:104DF000C14880F82510C7E0BE48007810F0100FB9
:104E00000DD00020BA49088001202082042060765D
:104E1000002020771121B84880F82510B4E0B4486C
:104E20000088002817DDB348007810F0010F01D08A
:104E300000202082208A58B9608AAD4909888842BA
:104E400002DA608AAA490880A9480088208202E024
:104E5000208AA74908800020207700BFA748006863
:104E6000A7490860A248008800280BDD208A002896
:104E700008DD208A2830A349088018219E4880F840
:104E8000251085E09B48007810F0020F07D02820FD
:104E90009C4908801021984880F8251078E0EAE0C5
:104EA0009448007810F0010F06D0002060761020A2
:104EB0009049087000F0DEFB5EE092480088002810
:104EC00003DD90480088FFF748F98B4890F82500EB
:104ED00010F0010F15D08748007810F0010F05D0B1
:104EE0000720607600206083208201E00620607643
:104EF0000120FFF732F910207E49087000F0BAFB5C
:104F00003DE07C48007810F0010F04D00520607669
:104F100000202082AFE07B480088002800DD2EE0E2
:104F2000A9E078480088002803DD76480088FFF76C
:104F300014F9714890F8250010F0010F0CD00720EB
:104F40006076002060830120FFF707F9102069498F
:104F5000087000F08FFB12E06A480088002800DD2E
:104F60000DE088E00BE06348007810F0010F03D0FB
:104F7000072060760020608300BF7CE040E01021C5
:104F80005D4880F8251000BF28205E49088000BFDA
:104F90005021594880F8241000BF217A564880F8E3
:104FA0002010617A80F82110A17A80F82210E17A2D
:104FB00080F82310217B0177617B4177A17B81778A
:104FC000E17BC17706214173A1880183E188418398
:104FD0004D490968016121684161607E10F0100F40
:104FE00006D00021444880F8271080F8261006E0FB
:104FF0000521414880F82610BE2180F8271000BF07
:1050000040213D4801733F48008801123A488171B0
:105010003C4801783848C171002180F82B1080F895
:105020002A100185FEF724FFC04381B23248018572
:1050300000BF45203049087100212F484171C172DD
:10504000817232480088401C304908800846008838
:105050000112294801722D48017827484172002128
:10506000C181FEF7D4FEC04381B22348C181002034
:105070002049087070BD0020224908801D49087031
:1050800000BFF7E70146C1F3072040EA0122080C00
:1050900000020B0C40EA232062F31F40704770B5FA
:1050A00004460D461548016813482C30081A40F292
:1050B000BE51081AA84201DD284607E00F480168E2
:1050C0000D482C30081A40F2BE51081A0646002E30
:1050D0000CDD07490E8009480068844206D0084666
:1050E000028821460548006809F0E0FC70BD000018
:1050F00006010020080100201020002000010020EF
:10510000FC00002004010020EE0000201801002017
:10511000014600BF11F8012B02E0491C501EC2B22B
:10512000002AFADC08780028F4D1481C70472DE9E1
:10513000F0410020D149087076E0D048007800EBBB
:10514000800101EB4010CE4901EB4004207801289A
:1051500002D02078022861D12078022816D1607808
:10516000401E10F0FF0060700FD1A078401CC0B24C
:10517000A070082806D1042020700021601D00F0D6
:105180006CFB4CE0A078607006E048E002202070E4
:10519000012060700020A070BA48076800203860C5
:1051A0007860B860B5480078FEF71FFE38800120AF
:1051B000B8700002B880B348006800F10C05661DA5
:1051C000761E00BF761CA8466D1C0020AE490870F4
:1051D00008E0307828706D1CAB480078401CAA4964
:1051E0000870761C30782E2802D030780028F0D154
:1051F000A548007888F8000030780028E2D1A3485C
:105200000168296000792871681D9E4A1278801A09
:10521000C1B29C480068FFF742FF09E000BF974811
:105220000078401C9549087094480078042884DB75
:1052300000BFBDE8F0812DE9FF419248076838883A
:10524000FEF7D3FD924908700846007800EB800114
:1052500001EB40108A4901EB40048D480078042896
:105260005ADA2078022857D103202070F87800F00D
:105270000F002071207938B1042020700021601DBA
:1052800000F0EBFABDE8FF81B888FEF7AEFD81497A
:105290000870F888FEF7A9FD7F4908707948006812
:1052A0000C30FFF735FF061D32E0307810F0C00FEC
:1052B00001D0B61C03E03046FFF72AFF06460E2257
:1052C0003146684609F0F2FB6D462888B0F5807FCC
:1052D00013D16888B0F5807F0FD12889B0F5806F31
:1052E0000BD16889A4F84600A9894820015304F12C
:1052F0004601601D00F0B1FAC4E72889FEF775FD8C
:1053000006F10A01461864480078401E6249087098
:10531000614800780028C8DC00BFB3E710B5044638
:105320005E480068C088B0F5545F0DD15C480078D5
:1053300010F0080F01D0FFF7FAFE5948007810F07E
:10534000020F01D0FFF777FF10BD2DE9F0410646AF
:105350004FF0000800270024002518E005EB850029
:1053600000EB4510464901EB4004207800B910E0FD
:10537000E0784C490978081A404506DDE07849494B
:105380000978081A00F0FF082F46681CC5B2042DE2
:10539000E4DB00BF042D07D13D4605EB850000EBA3
:1053A0004510374901EB400440223146601D09F0A9
:1053B000C1FB012020703B480078401CC0B2394935
:1053C0000870E070BDE8F08170B5054600203649F0
:1053D000087018E03448007800EB800101EB4010C1
:1053E000274901EB40042078032807D1611D284696
:1053F00009F0B3FB10B904F1460070BD2A480078EB
:10540000401C29490870284800780428E2DB002065
:10541000F3E72648006808B9002070472348006871
:10542000FBE710B504462148006818B100201F4969
:10543000096888800023AFF21B124FF454512046B4
:1054400000F060F91949086010BD00201849087083
:105450000EE003201649097801EB810202EB4111AD
:10546000074A02F8110012480078401C10490870E1
:105470000F4800780428ECDB704700002C01002066
:1054800028270020FC0000202D0100202E010020F4
:1054900035010020330100203401002014010020D8
:1054A00008010020380100203601002028010020DA
:1054B0003701002070B504460D46656006F0E1FD39
:1054C000206070BDD0E9001211440160704710B532
:1054D000044606F0D6FD206010BD10B5044606F067
:1054E000D0FD0649086020680968081A616888428A
:1054F00001D3012010BD0020FCE700003C0100208A
:10550000024611460BE00878302802DB087839287B
:1055100004DD08782E2801D001207047491C087846
:105520000028F0D100BFF8E710B514214648FFF776
:10553000C1FF00BF4548007845490870434840789E
:1055400048704248807888704048C078C87000BF72
:1055500040480968016010BD3F4800883F49088005
:1055600008460088704710B53C480088002817DDC1
:105570000120FEF70FFE39480088002862DDFF2079
:105580003749087003204870002088702120C870B7
:1055900032480088801D81B2314800F0E7FB51E0BD
:1055A0002948FFF79AFF00284CD02748FFF78FFFC4
:1055B000002420E000BF04EB84002A4901EBC00076
:1055C000294908600220FEF7E5FD00BF2348008856
:1055D00078B1FF20224908700320487000208870AD
:1055E0002120C8701D480088801D81B21C4800F031
:1055F000BDFB601CC4B2052CDCDB002420E000BF36
:1056000004EB8400194901EB80001949086005206A
:10561000FEF7C0FD00BF1148008878B1FF20104997
:10562000087003204870002088702120C8700B4843
:105630000088801D81B20A4800F098FB601CC4B24B
:10564000052CDCDB10BD000040010020860100209D
:1056500048010020EE0000207C0100200401002011
:1056600010200020FC2500200C010020C426002072
:105670001401002010B54F48006820B14D48006863
:1056800000F1200403E04C48006800F10C044B4991
:10569000097811F0400F1CD049480021494A117087
:1056A00012E00188434A12689288914206D141680B
:1056B00021B1416821600021616009E00830414961
:1056C0000978491C3F4A11703E4909780129E8DBF5
:1056D00000BF206810B1D4E90010884710BD2DE943
:1056E000F04106460F46154639463046FEF70EFC99
:1056F000044614B90020BDE8F08133482062656299
:105700002046F8E72DE9F0478046894616461F46B1
:1057100049464046FEF775FC044614B90020BDE832
:10572000F08704F10C052E606F602046F7E770B536
:105730000546234C0020254908700EE0208830B92A
:105740002580214860602846FEF7DAFC09E008342D
:105750001E480078401C1D4908701C48007801282C
:10576000ECDB00BF70BD70B50546154C0020184934
:10577000087012E02088A84209D113496068884265
:1057800005D1002020802846FEF79DFC09E0083462
:105790000F480078401C0E4908700D480078012819
:1057A000E8DB00BF70BD00F12002074B13605160C1
:1057B000704700000C0100201401002008010020A7
:1057C000502800204C010020E75900084D0100201E
:1057D0004E01002000202149087021480068002166
:1057E000204A03C2704710B51C48007820B1012838
:1057F0000BD0022822D110E0FFF727FE1A48FFF74E
:1058000010FE01201549087000BF164903C9154A4A
:1058100003C202201149087000BF1148006800212E
:10582000104B0CCB821A61EB0301104B00209A1A2B
:10583000884102D200200949087000E000BF00BF83
:1058400010BD10B504462046FFF7BEFD10BD10B5D3
:1058500004462046FFF779FD10BD7047580100202F
:10586000F0040020500100208A01002040771B0036
:10587000F7480068401CF649086070470146088CEC
:105880004A8C801A80B2704770B504460D460026D7
:10589000002C31D0052D2ED2DFE805F0030C141CAE
:1058A0002400E06B28B100222146E36BA0699847F1
:1058B000064620E0A06C20B16FF00401A26CA06944
:1058C000904718E0A06C20B16FF00201A26CA069B3
:1058D000904710E0A06C20B16FF00201A26CA069AB
:1058E000904708E0606B28B100222146636BA069F5
:1058F0009847064600BF00BF70BD70B50446208CB7
:10590000002824DDE06910B3608C218C884215DA10
:10591000208C618C451ACF480068408AA84201DD7E
:10592000284602E0CB480068408A0546628CE1695F
:1059300088182946FFF7B3FBA58408E000202084DF
:105940006084E061A08404212046FFF79DFF70BDC4
:1059500010B50446208C002813DDE06988B1608C06
:10596000218C884209DB002020846084E061A084CF
:1059700004212046FFF788FF03E0608CA18C0844D7
:10598000608410BD2DE9F04105464FF00008B24893
:105990000688B2480768D6B1002231460320FCF7DA
:1059A00010FF04469CB132463946606809F07EF823
:1059B000A86B40B1002322462946D5F838C0A86913
:1059C000E047804603E014B12046FCF7BCFEBDE88A
:1059D000F08138B1018D29B190F8271041F0010113
:1059E00080F82710704770B505462C4600263CB15C
:1059F000206928B1974920690968884200D070BDA4
:105A00009748007810F0400F3CD034BB95480068B0
:105A100005F01FFD04461DE094F8270010F0010F6B
:105A200014D0208D90B18B4909688888FEF7DDF984
:105A3000218D88420AD194F8270020F0010084F8D3
:105A4000270000212046FFF71FFF05E0204605F054
:105A500081FD0446002CDFD103E000212046FFF742
:105A600013FF1CB920207E4908700AE07C480078AA
:105A700010F0020F02D02046FFF784FF2046FFF708
:105A80003CFFBCE77648007810F0800F06D002217A
:105A90002046FFF7F9FE2046FFF79BFF704800788D
:105AA00010F0200F06D003212046FFF7EDFE204620
:105AB000FFF78FFF1CB92020694908709FE76848ED
:105AC000007810F0010F02D02046FFF741FF644834
:105AD000007810F0020F02D02046FFF753FF604815
